:020000020000FC
:100000000FEF0AB904B900E007B901E010E050E0D1
:1000100061E00E9438000E942B0015FD0E943B0009
:1000200000FD0E943B000E9419000E943D000C94BC
:10003000090076B170FD0E941E00089576B17170BE
:100040007130E1F376B171707030E1F376B17170B7
:100050007130E1F3089550FD0E94350050FF0E9479
:1000600032000895001F111F0895079517950895F0
:100070000BB915B908955627089529E236E940E8E5
:0E0080004A95F1F73A95E1F72A95D1F70895E0
:00000001FF
